:020000040800F2
:10000000E806002089010008C3150008091000084F
:10001000C11500088F0200081F160008000000002C
:10002000000000000000000000000000C7150008EC
:100030009102000800000000C5150008C91500085D
:10004000A3010008A3010008A3010008A301000800
:10005000A3010008A3010008A3010008A3010008F0
:10006000A3010008A3010008A3010008A3010008E0
:10007000A3010008A3010008A3010008A3010008D0
:10008000A3010008A3010008A3010008A3010008C0
:10009000A3010008A3010008A3010008A3010008B0
:1000A000A3010008A3010008A3010008A3010008A0
:1000B000A3010008A3010008A3010008A301000890
:1000C000A3010008A3010008A3010008A301000880
:1000D000A3010008A3010008A3010008A301000870
:1000E000A3010008A3010008A301000800F002F822
:1000F00000F03AF80AA090E8000C82448344AAF188
:100100000107DA4501D100F02FF8AFF2090EBAE885
:100110000F0013F0010F18BFFB1A43F0010318473B
:10012000F818000018190000103A24BF78C878C1E8
:10013000FAD8520724BF30C830C144BF04680C60ED
:10014000704700000023002400250026103A28BF35
:1001500078C1FBD8520728BF30C148BF0B60704739
:100160001FB51FBD10B510BD00F058F81146FFF7C0
:10017000F7FF01F065FA00F076F803B4FFF7F2FF3D
:1001800003BC00F07DF8000009488047094800479B
:10019000FEE7FEE7FEE7FEE7FEE7FEE7FEE7FEE737
:1001A000FEE7FEE704480549054A064B7047000094
:1001B0001D160008ED000008E8000020E8060020F9
:1001C000E8020020E80200204FF0000200B51346CC
:1001D00094469646203922BFA0E80C50A0E80C5067
:1001E000B1F12001BFF4F7AF090728BFA0E80C5018
:1001F00048BF0CC05DF804EB890028BF40F8042B11
:1002000008BF704748BF20F8022B11F0804F18BF7D
:1002100000F8012B7047704770477047754600F033
:100220002BF8AE4605006946534620F00700854688
:1002300018B020B5FFF7B6FFBDE820404FF000062C
:100240004FF000074FF000084FF0000B21F00701BE
:10025000AC46ACE8C009ACE8C009ACE8C009ACE801
:10026000C0098D46704710B50446AFF300802046A4
:10027000BDE81040FFF781BF0048704788000020AC
:1002800001491820ABBEFEE7260002007047FEE7DA
:100290007047000070B5044600F0FEF80546601C8B
:1002A00002D004480078044400F0F6F8401BA04255
:1002B000FAD370BD240000202DE9F84FDFF8B89183
:1002C0000024A9F1040B23460F2709F1040AABF11E
:1002D000040EC9E00125A5402A40AA427DD1674EFF
:1002E000D1F804C0ACEB0608B44532D014DCBCF144
:1002F000030F3AD009DCBCF1000F2AD0BCF1010F8A
:100300001CD0BCF1020F31D11DE0BCF1110F17D090
:10031000BCF1120F2AD119E0B8F5881F19D006DCFC
:10032000B8F5803F15D0B8F5801F1FD111E0B8F5A2
:10033000001F0ED0B8F5041F18D10AE0CB6815E0F5
:10034000CB681B1D12E0CB6808330FE0CB680C3381
:100350000CE08B682BB1012B4FF0080303D04561F3
:1003600004E0042302E0056100E00023FF2A01D835
:10037000064601E000F104064FEA840501D9A5F123
:100380002005D6F8008007FA05FC28EA0C0803FAD5
:1003900005F548EA0508C6F800804D68ED0062D50D
:1003A000374DAE6946F00106AE61AD6924F0030633
:1003B00005F001050095334D06EB050CDCF80850FF
:1003C000A607360F07FA06F825EA0805DFF8B88011
:1003D000404503D14FF0000817E044E0DFF8AC805F
:1003E000404502D14FF001080FE0DFF8A4804045FE
:1003F00002D14FF0020808E0DFF89880404502D1B2
:100400004FF0030801E04FF0040808FA06F848EA44
:100410000508CCF808804D68D9F80060ED024D461B
:1004200001D5164300E096432E604D68DAF800606F
:10043000AD02554601D5164300E096432E604D6847
:10044000DBF80060AD035D4601D5164300E096433E
:100450002E604D68DEF80060ED03754601D5164349
:1004600000E096432E60641C0D682A46E5407FF448
:1004700031AFBDE8F88F0000080401400000111002
:10048000001002400000014000080140000C014043
:1004900000100140001401400148806870470000CE
:1004A0002400002070B5040025D094F83D000025FC
:1004B00020B984F83C50204600F07EFA242084F8CD
:1004C0003D002068016821F0010101602068016899
:1004D00041F4004101602068016821F4004101609D
:1004E00000F0B8FB4D4A6168914201D84C4900E0E8
:1004F0004C49884201D2012070BD4B492368B0FBB2
:10050000F1F15E6826F03F060E435E606368934239
:1005100006D94FF4967359434FF47A73B1FBF3F154
:100520002368491C1E6A26F03F0631431962616840
:10053000914210D84900401EB0FBF1F2521CC2F3A8
:100540000B02042A01D2042022E0B0FBF1F0401C8F
:10055000C0F30B001CE0A268F2B301EBC10303EB94
:100560000116431EB3FBF6F35B1C43F480431B05EB
:1005700049D092B301EBC10202EB0111401EB0FB66
:10058000F1F0401CC0F30B0040F4804040F4004008
:100590002168CA694CF6FF739A431043C861D4E9D5
:1005A000071001432068026822F0C0021143016075
:1005B000D4E9030101432068826848F2FF339A437B
:1005C00011438160D4E9050108432168CA6822F01B
:1005D000FF021043C86001E00EE016E020680168E9
:1005E00041F0010101602564202084F83D0025636D
:1005F00084F83E50002070BD01EB4106431EB3FB62
:10060000F6F35B1CB3E70120C2E701EB4101401E9A
:10061000B0FBF1F0401CC0F30B00B7E7A08601006F
:1006200080841E0000093D0040420F002DE9FF4F6D
:1006300083B00025DDE910799A4693460446DDF83B
:1006400048800095FFF728FF064694F83D002028D3
:100650007CD11923012288492046009600F0EAFD4A
:100660000028F5D194F83C0001286FD0012084F8CF
:100670003C0020680168C90703D1016841F001010D
:1006800001602068016821F400610160222084F883
:100690003D00402084F83E0025646762A4F82A905B
:1006A000608D20857548E062CDE9008653465A4644
:1006B0002046049900F0C0FC00287CD1208DDFF892
:1006C000C091202768B1012814D002282068016851
:1006D0001ED041F48061016020684169806900900A
:1006E000BCE02068416981690091016841F40071B2
:1006F0000160B3E02068016821F48061016072B696
:100700002068416981690091016841F400710AE043
:1007100041F40061016072B620684169816900910D
:10072000016821F48061016062B697E0032865D812
:1007300001280CD0022843464FF0000249462046CB
:1007400000960BD000F076FDA8BB0CE091E032469D
:100750004146204600F014FE68BB72E000F06AFDDE
:1007600048BB72B633E02068016821F48061016003
:1007700072B620680069616A0870606A401C606235
:10078000208D401E2085608D401E60853D4846F2CC
:10079000A8110068B0FBF1F0C0EBC00000EB8000D6
:1007A0000090401E009007D020684069C043400779
:1007B0000DD50098F5E727E044F8305F6773A5731F
:1007C000206940F02000206162B625731CE020689B
:1007D000016841F40071016020680069616A087075
:1007E000606A401C6062218D491E2185618D491E11
:1007F000618562B621680969017026E0324641468A
:10080000204600F0BDFD18B1012007B0BDE8F08F13
:1008100020680069616A0870606A401C6062208D0F
:10082000401E81B22185608D401E6085206842692E
:10083000D243520712D4032903D1016821F4806105
:10084000016020680069616A0870606A401C60622B
:10085000208D401E2085608D401E6085208D0028E3
:100860007FF464AF84F83D7084F83E5084F83C50C7
:10087000CBE70220C9E70000020010000000FFFFE4
:1008800004000100300000202DE9FF4F83B09A469C
:10089000DDE9119793460446DDF84080FFF7FCFD43
:1008A000054694F83D0020287FD1192301224049B4
:1008B0002046009500F0BEFC002876D194F83C005C
:1008C000012872D0012084F83C0020680168C90723
:1008D00003D1016841F0010101602068016821F441
:1008E00000610160212084F83D00402084F83E0032
:1008F00000262664C4F82480A4F82A90608D208500
:100900002C48E062CDE9007553465A4620460499CA
:1009100000F010FC70B930E02A463946204600F05D
:1009200067FD58B1206C042804D12068016841F4A7
:1009300000710160012007B0BDE8F08F606A216896
:1009400000780861606A401C6062218D491E89B28E
:100950002185628D521E628522685369DB435B07E5
:100960000BD469B100781061606A401C6062208D10
:10097000401E2085608D401E6085208D0028CBD1D3
:100980002A463946204600F029FC0028CAD154F8EE
:100990003D0B016841F400710160202004F81E093C
:1009A000E67766770020C6E7FFE70220C3E700008E
:1009B000020010000000FFFF10B586B0002100917A
:1009C00001910291039100680F4988421AD10F4C9E
:1009D000A06940F00800A061A069694600F0080025
:1009E0000490C0200090122001900320039008483A
:1009F000FFF762FCE06940F40010E061E06900F498
:100A00000010049006B010BD0054004000100240D9
:100A1000000C0140024881680278114481607047EF
:100A200024000020074810B5016841F01001016062
:100A3000032000F067F80F2000F006F800F024F81B
:100A4000002010BD0020024070B50D4D04464FF44B
:100A50007A712878B1FBF0F00A490968B1FBF0F02F
:100A600000F0BEFA48B9102C07D200222146501ED1
:100A700000F028F800206C6070BD012070BD0000FF
:100A800024000020300000200C4808B5816941F0A6
:100A900001018161816901F001010091C16941F0A9
:100AA0008051C161C06900F08050009004484168E5
:100AB00021F0E06141F00071416008BD001002408A
:100AC00000000140F0B40E4B1B680C46C3F3022338
:100AD000C3F10705042D00D90425191D072901D2EA
:100AE000002300E0DB1E012606FA05F1491E214025
:100AF00099409E40761E16403143F0BC00F090BDF8
:100B00000CED00E0064900F0070208684FF6FF030D
:100B1000184040EA0220034A104308607047000072
:100B20000CED00E00000FA052DE9F0470F46050046
:100B300061D0434E306800F00700B84209D23068F7
:100B400020F0070038433060306800F00700B842FA
:100B500051D128683B4C810712D5400703D5606806
:100B600040F4E06060602878000703D5606840F4D6
:100B7000605060606068A96820F0F0000843606021
:100B80002878C00728D06868012810D0216802287A
:100B900010D0890700292EDA616821F00301014392
:100BA0006160FFF779FC804641F288390DE02168E9
:100BB0008903EFE78901EDE7FFF76EFCA0EB080181
:100BC000494502D90320BDE8F0876068696800F0F4
:100BD0000C00B0EB810FEFD1306800F00700B84295
:100BE0000BD9306820F0070038433060306800F0DF
:100BF0000700B84201D00120E5E72878400705D575
:100C00006068E96820F4E0600843606028780007C5
:100C100006D56068296920F4605040EAC100606030
:100C200000F028F86168084AC1F30311515CC8401C
:100C30000649086006480068FFF706FF0020C2E783
:100C40000020024000100240001A0008300000207E
:100C5000280000200448054900684968044AC1F397
:100C60000221515CC8407047300000200010024053
:100C7000101A00080E4A51680E4801F00C03042BAC
:100C800011D0082B0FD10C48C1F38343C903C05CBA
:100C90000AD55168084AC1F34041921E515C054A89
:100CA0005043B0FBF1F070470449484370470000DF
:100CB0000010024000127A00F019000800093D00FF
:100CC0002DE9F84F040070D02078C04DC00749D0FE
:100CD0006868C0F38100012807D06868C0F381000C
:100CE000022809D16868C00306D52868800339D571
:100CF00060680028E7D035E06068B0F5803F0BD031
:100D000010B1B0F5A02F11D0286820F480302860F1
:100D1000286820F4802002E0286840F480302860B1
:100D2000606890B1FFF7B8FB06460AE0286840F417
:100D300080202860F0E700BFFFF7AEFB801B64282F
:100D400073D828688003F7D50CE0FFF7A5FB0646AB
:100D500005E000BFFFF7A0FB801B6428F0D82868DF
:100D60008003F7D420789A4E80074FF001094FF0A6
:100D7000000839D5686810F00C0F07D06868C0F318
:100D80008100022809D16868C00306D4286880075A
:100D900014D52069012808D110E02069B0B1C6F847
:100DA0000090FFF779FB074605E00AE1FFF774FBC7
:100DB000C01B0228C4D828688007F7D52868616955
:100DC00020F0F80040EAC10028600DE0C6F800807D
:100DD000FFF762FB074604E0FFF75EFBC01B02283B
:100DE00023D828688007F7D4207800072CD57948C5
:100DF000A169D9B1C0F80090FFF74EFB074604E0A7
:100E0000FFF74AFBC01B02280FD8686A8007F7D596
:100E100071484FF4FA510068B0FBF1F0009000BF48
:100E20000098411E0091FAD20EE080E0C0F80080E8
:100E3000FFF732FB074604E0FFF72EFBC01B02283A
:100E400075D8686A8007F7D42078400760D5E869CC
:100E50000027C00008D4E86940F08050E861E869E4
:100E6000012700F0805000905C480168C90513D448
:100E70000168834641F480710160FFF70DFB8246F3
:100E800006E000BFFFF708FBA0EB0A0064284ED87D
:100E9000DBF80000C005F5D5E06801280AD008B1EC
:100EA000052813D0286A20F001002862286A20F063
:100EB000040002E0286A40F001002862E06841F284
:100EC000883B98B1FFF7E8FA82460BE0286A40F0C9
:100ED00004002862EEE700BFFFF7DEFAA0EB0A018C
:100EE00059455AD8286A8007F6D50CE0FFF7D4FA9E
:100EF000824605E0FFF7D0FAA0EB0A0159454CD82D
:100F0000286A8007F6D41FB1E86920F08050E861B4
:100F1000E06988B36968C1F38101022944D00228DD
:100F2000C6F8608004D0FFF7B7FA044638E034E032
:100F3000FFF7B2FA074604E0FFF7AEFAC01B02283B
:100F40002BD828688001F7D4206AB0F5803F05D1FE
:100F50006868A16820F4003008436860D4E908019B
:100F60000843696821F4741108436860C6F860900A
:100F7000FFF792FA044606E025E000BFFFF78CFA7F
:100F8000001B022809D828688001F7D51BE000BFA4
:100F9000FFF782FA001B022802D90320BDE8F88F70
:100FA00028688001F4D40EE00128F7D06868226A2E
:100FB00000F48031914204D1616A00F470108842DB
:100FC00001D00120EAE70020E8E70000001002401D
:100FD0000000424280044242300000200070004085
:100FE00010B5401EB0F1807F01D3012010BD4FF03D
:100FF000E02460610F21601700F012FB0020A06167
:1010000007202061002010BDFEE701684A69D24335
:1010100052050FD46FF480624A61002140F8301FFE
:10102000202242738173026942F00402026101735B
:1010300001207047002070472DE9F84F04460068F2
:1010400089460B9D01689846174641F4806101600E
:101050002068016841F48071016000954FF0011B28
:101060000022594620460A9B00F0E4F84FF4007A2B
:1010700040B120680068C00501D5C4F840A0032035
:10108000BDE8F88F216809F0FE0008612B46284969
:1010900020460A9A00F016F9F0BB20684169806981
:1010A00000902A4620460A9900F0A2F940B1206C2F
:1010B00004283AD12068016841F40071016034E0ED
:1010C000FEB2B8F1010F09D02168380A08612A463A
:1010D00020460A9900F08CF90028E8D120680661C2
:1010E0002A4620460A9900F083F90028DFD12068BB
:1010F000016841F480710160009500225946204644
:101100000A9B00F097F80028B3D1216809F0FF008E
:1011100040F00100086100E007E02B46044920464A
:101120000A9A00F0CFF80028AAD00120A8E7000012
:10113000020001002DE9F843044600680D46DDE990
:10114000089701689846164641F4807101604B4645
:1011500000224FF001112046009700F06BF848B1D3
:1011600020680068C00502D54FF400702064032099
:10117000BDE8F883216805F0FE0008613B464A4659
:101180001549204600F09EF888B9206841698069B9
:1011900000903A464946204600F02AF948B1206CB2
:1011A000042804D12068016841F400710160012025
:1011B000DEE7F5B2B8F1010F09D02168300A086105
:1011C0003A464946204600F013F90028E7D1206846
:1011D00005610020CCE700000200010070B5164652
:1011E0000D4604461EE02046FFF70FFF08B1012020
:1011F00070BD681C16D0FFF74FF9801BA84200D8BD
:1012000085B920684069C04340070BD5002044F8E9
:10121000300F20216173A073216941F02001216109
:101220002073E4E720684069C0434007DBD4002016
:1012300070BD00002DE9F047984617460D4604465C
:10124000C1F30746DDF820902AE000BFB8F1FF3F68
:1012500026D0FFF721F9A0EB0901414502D8B8F1EA
:10126000000F1DD12068012E16D0806925EA0000EC
:101270000004000C12D00020B84211D1002044F824
:10128000300F20216173A073216941F02001216199
:1012900020730120BDE8F0874069E7E70120EBE714
:1012A0002068012E0AD0806925EA00000004000CA5
:1012B00006D00020B842C9D00020EBE74069F3E730
:1012C0000120F7E72DE9F047984616460D460446FB
:1012D0004FF000094FF0200AC1F3074723E02068D0
:1012E0004069C043400515D42068016841F400718D
:1012F000016021686FF480604861C4F8309084F820
:101300003DA084F83E90216C41F00401216484F8F2
:101310003C9021E0701C06D0FFF7BEF8A0EB08005F
:10132000B04203D816B1012F1FD021E02068012F51
:1013300015D0806925EA00000004000C18D000BF19
:1013400044F8309F84F80DA084F80E90216941F094
:101350002001216184F80C900120BDE8F0874069EC
:1013600025EA00000004000CEAD12068406901E091
:101370002068806925EA00000004000CAFD1ECE78A
:101380002DE9F041002590460E460446202728E02E
:101390004069C043C0060CD454F8301B6FF01000F5
:1013A000486144F810596777A577206A206225774D
:1013B00014E0FFF771F8A0EB0800B04200D886B93E
:1013C00020684069C04340060BD544F8305F67731E
:1013D000A573206940F02000206125730120BDE83D
:1013E000F08120684169C9434906D1D40020F6E75D
:1013F00070B516460D4604461EE02046FFF705FE72
:1014000008B1012070BD681C16D0FFF745F8801B9D
:10141000A84200D885B920684069C04300060BD5B2
:10142000002044F8300F20216173A073216941F03E
:10143000200121612073E4E720684069C043000671
:10144000DBD4002070BD0000F0B585B0012504A8F4
:10145000CDE900054FF47A742B467522D021029411
:101460001B48FFF7E3F89DF8100068282ED10027ED
:1014700003AE8DF80C700096CDE9015401236B2268
:10148000D0211348FFF700FA07208DF80C000096D2
:10149000CDE9015401231922D0210D48FFF7F4F9B9
:1014A0008DF80C700096CDE9015401231B22D02148
:1014B0000748FFF7E9F98DF80C700096CDE9015463
:1014C00001231C22D0210248FFF7DEF905B0F0BD50
:1014D00034000020F0B585B04FF47A72062103A8DD
:1014E0008DE8070001233B22D0211548FFF79EF825
:1014F000BDF80C00134C40BA00B22080BDF80E10AD
:1015000049BA0EB26680BDF8101049BA0DB2A58076
:1015100000F09AF96FF00D07394600F02AFAE06002
:10152000304600F091F9394600F023FA2061284650
:1015300000F08AF9394600F01CFA606105B0F0BD90
:101540003400002000000020F0B585B04FF47A721E
:10155000062103A88DE8070001234322D021154866
:10156000FFF764F8BDF80C00134C40BA00B2E080FD
:10157000BDF80E1049BA0EB22681BDF8101049BA56
:101580000DB2658100F060F90C4F394600F09AF811
:10159000A061304600F058F9394600F093F8E06158
:1015A000284600F051F9394600F08CF8206205B069
:1015B000F0BD0000340000200000002000000343C4
:1015C000FEE7FEE770477047FFF724BA10B590B00A
:1015D00028216846FEF7F8FD14210AA8FEF7F4FD5D
:1015E0000220009001200490102000240590079410
:1015F0006846FFF765FB08B172B6FEE70F20CDE93C
:101600000A040C940D9400210AA80E94FFF78CFA9A
:10161000002801D072B6FEE710B010BD7047FEE79B
:101620000907090E002804DB00F1E02080F800140F
:10163000704700F00F0000F1E02080F8141D7047A3
:1016400008B5FFF7EFF9FFF7C1FF1748816941F0CF
:1016500004018161816901F004010091816941F017
:10166000080181618069114900F00800009010486C
:101670004FF4804201600F49416000218160C0E960
:10168000031241618161C1610162FEF70BFF08B184
:1016900072B6FEE7FFF7D8FEFFF71CFFFFF754FF17
:1016A0006420FEF7F7FDF7E7001002400054004009
:1016B00034000020A0860100014800F028B900BFD6
:1016C0000000C07F4FF47F0C1CEAD0121EBF1CEA42
:1016D000D11392EA0C0F93EA0C0F00F0858090EA88
:1016E000010F48BF42F4807240F4000C41F4000046
:1016F0002CF07F4120F07F4000B58142A2EB030235
:101700000FF2081CACEB504EC0F100009EF800E058
:101710004FEA4E0E00FB0EFC38BF49004FEA2C1C6E
:1017200002F5FA020CFB0EF34FEACE1E4FEA112C23
:101730004FEAC1210EEB635E42EB22420EFB0CFC32
:101740004FEA1C5300FB03114FEA112C4FEA013101
:101750000EFB0CFC4FEADC4C00FB0C11C14228BF15
:1017600009184CEB03335DF804EB10EB410143EB3C
:10177000C250B2F57C0F38BF704729D512F0F00F78
:101780001CBF00F1C04000F0004070470081828320
:101790008485868788898B8C8D8E8F919293959680
:1017A00097999A9C9D9FA0A2A3A5A7A8AAACAEB00A
:1017B000B2B3B5B7B9BCBEC0C2C5C7C9CCCED1D40F
:1017C000D7D9DCDFE2E6E9ECF0F3F7FAFE0000003F
:1017D0004FEA400C0CF1807CBCF17E4F28BF704773
:1017E000B0F1C04000F08EB890EA010F0CEAD113BE
:1017F00048BF42F48072624538BF634507D213F494
:101800007F0F16D080EA010000F00040704710B54D
:1018100000F032F8097EFC3E00F005B880EA0100D5
:1018200000F00040704780EA010000F0004000F046
:1018300069B812F47F0F04BF0248704780EA0100C4
:1018400000F060B80000C07F10F0004148BF404287
:10185000B0FA80F310FA03F2C3F19D030BD051EA02
:10186000C35101EB1220530638BF704700F101004D
:1018700008BF20F0010070470EF1020E2EF0030E9B
:101880005EF8044B244204D44FEA4102B2F17F4F88
:1018900011D84FEA4003B3F17F4F0CD80ED14FEA75
:1018A000D07CB2F17F4F0CEB4C0C0CF1020C08BF5A
:1018B0004CEBD17C04E04FF0080C01E04FEAD17C06
:1018C0000CEB4C0324FA03F404F00704B4F1040C09
:1018D00006D20EEB840CBDE810404CF0010C6047C2
:1018E000DFE80CF0070802024FF00040A0F580008E
:1018F00010BD0846420018BFD2F1807288BF00F0C8
:10190000004010BDFF2141EAD050C00570470CF0E7
:101910000F03092B08BF082000F051800A2B0BD0C1
:10192000082B18BF704708BF1CF0400F0AD04FF0BB
:1019300000004FF0000170471CF0400F18BF4FF03F
:10194000004070471CF0100F08D020F0704300F0EA
:101950007F4242EAD3014FEA4370704700F0604093
:1019600021F07F4242EA000201F07F4040EA7270BB
:1019700070474FF0FF0212EAD0521CBF92F0FF03F3
:101980008B42C2BFD14200EBC1507047002A0AD03F
:10199000002B0BD0002900F00040A4BF40F0FE4017
:1019A00040F40000704700F00040704743024FF0E1
:1019B0000B0C18BF4CF0806C7FF47EAE70471CF4AB
:1019C000801F11D01CF4E02F03D06FEACC31490006
:1019D00070474FF04050EFF3008222F0704242EA2D
:1019E000000282F3008870474FF000007047010248
:1019F00002030405060708090A0B0C0D0E0F101050
:101A000000000000000000000102030406070809AE
:101A10000000000001020304381A00080000002042
:101A200034000000280100086C1A0008340000206F
:101A3000B40600004401000800000000000000009F
:101A40000000000000000000000000000000000096
:101A50000000000000000000000000000100000085
:0C1A6000100000000000000000127A00DE
:04000005080000ED02
:00000001FF
