:020000040800F2
:10000000A80600208901000803130008AD120008AB
:100010000113000895030008871300080000000082
:1000200000000000000000000000000007130008AE
:1000300097030008000000000513000809130008DA
:10004000A3010008A3010008A3010008A301000800
:10005000A3010008A3010008A3010008A3010008F0
:10006000A3010008A3010008A3010008A3010008E0
:10007000A3010008A3010008A3010008A3010008D0
:10008000A3010008A3010008A3010008A3010008C0
:10009000A3010008A3010008A3010008A3010008B0
:1000A000A3010008A3010008A3010008A3010008A0
:1000B000A3010008A3010008A3010008A301000890
:1000C000A3010008A3010008A3010008A301000880
:1000D000A3010008A3010008A3010008A301000870
:1000E000A3010008A3010008A301000800F002F822
:1000F00000F03AF80AA090E8000C82448344AAF188
:100100000107DA4501D100F02FF8AFF2090EBAE885
:100110000F0013F0010F18BFFB1A43F0010318473B
:100120000413000024130000103A24BF78C878C1DB
:10013000FAD8520724BF30C830C144BF04680C60ED
:10014000704700000023002400250026103A28BF35
:1001500078C1FBD8520728BF30C148BF0B60704739
:100160001FB51FBD10B510BD00F058F81146FFF7C0
:10017000F7FF01F019F900F076F803B4FFF7F2FF8A
:1001800003BC00F07DF8000009488047094800479B
:10019000FEE7FEE7FEE7FEE7FEE7FEE7FEE7FEE737
:1001A000FEE7FEE704480549054A064B7047000094
:1001B00085130008ED000008A8000020A806002014
:1001C000A8020020A80200204FF0000200B513464C
:1001D00094469646203922BFA0E80C50A0E80C5067
:1001E000B1F12001BFF4F7AF090728BFA0E80C5018
:1001F00048BF0CC05DF804EB890028BF40F8042B11
:1002000008BF704748BF20F8022B11F0804F18BF7D
:1002100000F8012B7047704770477047754600F033
:100220002BF8AE4605006946534620F00700854688
:1002300018B020B5FFF7B6FFBDE820404FF000062C
:100240004FF000074FF000084FF0000B21F00701BE
:10025000AC46ACE8C009ACE8C009ACE8C009ACE801
:10026000C0098D46704710B50446AFF300802046A4
:10027000BDE81040FFF781BF0048704744000020F0
:1002800001491820ABBEFEE72600020070470000BF
:1002900070B5044600688168C943C90717D18168F1
:1002A00021F00101816000F039FC05460AE000BF41
:1002B00000F034FC401B022804D920688068C04349
:1002C000C00706D020688068C043C007F0D0002077
:1002D00070BDA06A40F01000A062E06A40F001002A
:1002E000E062012070BD0000F8B5002604460096CB
:1002F00000688168C943C9072DD0816841F00101B8
:100300008160164816490068B0FBF1F000E0401E1D
:1003100000900028FBD100F001FC054616E000BF6C
:1003200000F0FCFB401B022810D920688068C04305
:10033000C0070BD0A06A40F01000A062E06A40F055
:100340000100E06284F824600120F8BD2068806824
:10035000C043C007E4D10020F8BD00001000002019
:1003600040420F0010B5094800F05CFA4FF47A7172
:10037000064800F0B9F9054800F0F8F8044908808B
:10038000BDE81040014800F0ADBA000014000020A4
:1003900000000020FEE77047F8B5002504460095F0
:1003A00090F8240001280BD0012084F82400204676
:1003B000FFF76EFF2046FFF797FF060002D050E0E0
:1003C0000220F8BDA06A20F4885040F00200A0622C
:1003D000022000F033FC25490968B1FBF0F0400031
:1003E00000E0401E00900028FBD12068816841F0A9
:1003F0000801816000F092FB074608E000F08EFBE8
:10040000C01B0A2803D920688068000715D420681B
:1004100080680007F2D42068816841F0040181609F
:1004200000F07CFB074612E000F078FBC01B0A28B6
:100430000DD920688068400709D5A06A20F0020025
:1004400040F01000A06284F824500120F8BD20681C
:1004500080684007E8D4A06A20F0020040F0010064
:10046000A06284F824503046F8BD0000100000203F
:10047000F8B50024009490F824202546012A12D0D3
:10048000012280F824204A681F23072A0DD206681B
:10049000776B521E02EB820293409F430B6893409E
:1004A0001F43776319E00220F8BD06680D2A0AD2BF
:1004B000376BD21F02EB820293409F430B6893403D
:1004C0001F43376309E0F76A0D3A02EB820293405B
:1004D0009F430B6893401F43F7620A68072306682F
:1004E0000A2A0AD3F7680A3A02EB420293409F4372
:1004F0008B6893401F43F76008E0376902EB4202C4
:1005000093409F438B6893401F4337610A68102ACA
:1005100001D0112A20D1124B02689A4217D1936858
:100520001B0219D4936843F40003936009681029EF
:1005300012D10C490C4A0968B1FBF2F101EB8101BF
:10054000490000E0491E00910029FBD104E0816AC6
:1005500041F020018162012480F824502046F8BD3A
:10056000002401401000002040420F000068C06CD1
:10057000704700002DE9F0414FF0000704003D46B0
:100580007ED0A06A002628B9E66284F8246020465E
:1005900000F07EF82046FFF77BFEA16AC90600D472
:1005A00020B1A06A40F01000A06269E0A16A21F4C5
:1005B000885141F00201A1626268E169237B0A432C
:1005C00047EA43010A43A1684FF48077B94209D052
:1005D000012907D05FF0000194F814C0BCF1010FAD
:1005E00002D00AE03946F7E7F3B1A36A43F02003EB
:1005F000A362E36A43F00103E3622368D3F804C013
:100600002CF4694C4CEA010CC3F804C021688B68D7
:10061000DFF870C003EA0C0313438B60A168B94292
:100620000BD0012909D00CE0DFF85CC0A3690CEB0A
:1006300043330B4343F40061DFE7218A0D05A5F541
:1006400080152168CB6A23F470032B43CB622168A9
:1006500089680E4B1940914208D1E662A16A21F0E7
:10066000020141F00101A162BDE8F081A06A20F021
:10067000020040F01000A062E06A40F00100E06279
:100680000120F1E7FDF7E1FF00E0FFFFFE0E1FFF95
:1006900000B585B00021009101910291039100689D
:1006A0000E49884218D10E48816941F40071816178
:1006B000816901F400710491816941F00401816153
:1006C0008069694600F00400049001200090032036
:1006D0000190044800F032F905B000BD002401404B
:1006E00000100240000801402DE9F84300270D46A4
:1006F0000446009700F012FA804620688168C90518
:1007000008D5A06A40F02000A06284F8247001207F
:10071000BDE8F8834168C90503D4C06A10F4700FBE
:100720002AD0022000F08AFA3B490968B1FBF0F6B2
:100730002068036939490B424FEA61014FEAA1126F
:100740001FD1C3684FEA611C13EA0C0F19D103696A
:100750000B4225D1C068104222D1142023E0681C2E
:100760000AD02DB100F0DAF9A0EB0800A84203D9B5
:1007700020680068800725D5206800688007EED5CE
:100780002DE003690B4202D1C168114206D0026913
:1007900023490A4206D1C068084203D1542002E02E
:1007A000292000E0FC204643009816E0681C11D088
:1007B0002DB100F0B3F9A0EB0800A8420AD90098C7
:1007C000B04207D2A06A40F00400A06284F824700E
:1007D00003209DE70098401C0090B042E6D32168BA
:1007E0006FF012000860A06A40F40070A0622068F8
:1007F0008068C0F3424007280CD1207B50B9A06A22
:1008000020F48070A062A06AC00403D4A06A40F003
:100810000100A06200207BE7100000202449922400
:100820004992240070B5044690F8240001280DD0A8
:10083000012084F824002046FFF756FD02004FF007
:10084000000005D084F82400104670BD022070BD61
:10085000A16A40F20123994341F48071A1621F4DC6
:1008600023681F49AB4218D10E6816F4702F14D0BC
:10087000A66A46F48016A6620E68760505D5A66AB5
:1008800026F4005646F48056A662A66AF6040AD5F7
:10089000E66A26F00606E66206E0A66A26F48016F8
:1008A000A6625E68E9E7E06284F824006FF0020067
:1008B000186020688368C3F34243072B05D1A84220
:1008C00008D1096811F4702F04D0816841F48011B7
:1008D0008160B9E7816841F4A001F9E7002801408F
:1008E0000424014010B5044690F82400012807D0E4
:1008F000012084F824002046FFF7CAFC10B107E06D
:10090000022010BDA16A21F4885141F00101A162C9
:10091000002184F8241010BD70B5044600F0FEF8E4
:100920000546601C02D004480078044400F0F6F844
:10093000401BA042FAD370BD040000202DE9F84FFF
:10094000DFF8B8910024A9F1040B23460F2709F121
:10095000040AABF1040EC9E00125A5402A40AA42D1
:100960007DD1674ED1F804C0ACEB0608B44532D057
:1009700014DCBCF1030F3AD009DCBCF1000F2AD023
:10098000BCF1010F1CD0BCF1020F31D11DE0BCF154
:10099000110F17D0BCF1120F2AD119E0B8F5881F3A
:1009A00019D006DCB8F5803F15D0B8F5801F1FD1EF
:1009B00011E0B8F5001F0ED0B8F5041F18D10AE0F9
:1009C000CB6815E0CB681B1D12E0CB6808330FE045
:1009D000CB680C330CE08B682BB1012B4FF0080374
:1009E00003D0456104E0042302E0056100E0002338
:1009F000FF2A01D8064601E000F104064FEA84050B
:100A000001D9A5F12005D6F8008007FA05FC28EAEF
:100A10000C0803FA05F548EA0508C6F800804D6899
:100A2000ED0062D5374DAE6946F00106AE61AD69A5
:100A300024F0030605F001050095334D06EB050C87
:100A4000DCF80850A607360F07FA06F825EA08056D
:100A5000DFF8B880404503D14FF0000817E044E0CC
:100A6000DFF8AC80404502D14FF001080FE0DFF81D
:100A7000A480404502D14FF0020808E0DFF89880DA
:100A8000404502D14FF0030801E04FF0040808FA96
:100A900006F848EA0508CCF808804D68D9F80060E7
:100AA000ED024D4601D5164300E096432E604D6899
:100AB000DAF80060AD02554601D5164300E09643D2
:100AC0002E604D68DBF80060AD035D4601D516432E
:100AD00000E096432E604D68DEF80060ED03754639
:100AE00001D5164300E096432E60641C0D682A462B
:100AF000E5407FF431AFBDE8F88F00000804014005
:100B000000001110001002400000014000080140E8
:100B1000000C0140001001400014014001488068B1
:100B200070470000040000200248816802781144E8
:100B30008160704704000020074810B5016841F04B
:100B400010010160032000F067F80F2000F006F8A4
:100B500000F024F8002010BD0020024070B50D4DBB
:100B600004464FF47A712878B1FBF0F00A4909681D
:100B7000B1FBF0F000F086FB48B9102C07D2002240
:100B80002146501E00F028F800206C6070BD012046
:100B900070BD000004000020100000200C4808B5C3
:100BA000816941F001018161816901F001010091D8
:100BB000C16941F08051C161C06900F0805000906E
:100BC0000448416821F0E06141F00071416008BDD6
:100BD0000010024000000140F0B40E4B1B680C46B0
:100BE000C3F30223C3F10705042D00D90425191D01
:100BF000072901D2002300E0DB1E012606FA05F1D9
:100C0000491E214099409E40761E16403143F0BC5B
:100C100000F0BABB0CED00E0064900F007020868DE
:100C20004FF6FF03184040EA0220034A10430860D1
:100C3000704700000CED00E00000FA0510B5014619
:100C40000020234C012922D0022939D010291DD19E
:100C500061682268D20119D51E48C1F38342C903D5
:100C6000805C0AD561681B4AC1F34041921E515C09
:100C7000194AB2FBF1F1484301E018494843616861
:100C8000490203D440000321B0FBF1F010BD226AF9
:100C9000C2F30121012903D1920701D5C80310BD78
:100CA000022905D1626A920702D549F6404010BD7B
:100CB0000329FCD121688903F9D54FF2244010BDE6
:100CC00000F01AF96168C1F38131491C4900DBE782
:100CD00000100240FC13000800127A0000093D00D9
:100CE0002DE9F84305460078354CC00754D0E0693B
:100CF0000026C00008D4E06940F08050E061E0695F
:100D0000012600F0805000902E480168C90512D4D9
:100D10000168804641F480710160FFF7FFFE0746DD
:100D200005E000BFFFF7FAFEC01B642823D8D8F8FF
:100D30000000C005F6D5206A10F4407021D0A988C3
:100D400001F4407181421CD0206A1F49012220F425
:100D500040700A6000220A602062C00711D0FFF7CD
:100D6000DDFE074641F2883808E000BFFFF7D6FEF7
:100D7000C11B414502D90320BDE8F883206A8007E2
:100D8000F4D5206A696820F44070084320621EB1DF
:100D9000E06920F08050E0612878800705D5606820
:100DA000A96820F44040084360602878C00605D553
:100DB0006068E96820F48000084360600020DBE799
:100DC0000010024000700040400442422DE9F0470C
:100DD0000F46050061D0434E306800F00700B8426E
:100DE00009D2306820F0070038433060306800F0E6
:100DF0000700B84251D128683B4C810712D5400703
:100E000003D5606840F4E06060602878000703D58F
:100E1000606840F4605060606068A96820F0F0008D
:100E2000084360602878C00728D06868012810D07F
:100E30002168022810D0890700292EDA616821F084
:100E4000030101436160FFF769FE804641F2883982
:100E50000DE021688903EFE78901EDE7FFF75EFE0A
:100E6000A0EB0801494502D90320BDE8F08760687E
:100E7000696800F00C00B0EB810FEFD1306800F032
:100E80000700B8420BD9306820F0070038433060C3
:100E9000306800F00700B84201D00120E5E728786B
:100EA000400705D56068E96820F4E06008436060A9
:100EB0002878000706D56068296920F4605040EA68
:100EC000C100606000F028F86168084AC1F30311AE
:100ED000515CC8400649086006480068FFF73EFEBE
:100EE0000020C2E700200240001002400C1400085D
:100EF00010000020080000200448054900684968E7
:100F0000044AC1F3C221515CC84070471000002060
:100F1000001002401C1400080E4A51680E4801F0EF
:100F20000C03042B11D0082B0FD10C48C1F38343C1
:100F3000C903C05C0AD55168084AC1F34041921EFA
:100F4000515C054A5043B0FBF1F0704704494843F7
:100F5000704700000010024000127A00EA130008F7
:100F600000093D002DE9F84F040070D02078C04DF5
:100F7000C00749D06868C0F38100012807D06868BD
:100F8000C0F38100022809D16868C00306D528682B
:100F9000800339D560680028E7D035E06068B0F597
:100FA000803F0BD010B1B0F5A02F11D0286820F4ED
:100FB00080302860286820F4802002E0286840F40F
:100FC00080302860606890B1FFF7A8FD06460AE00F
:100FD000286840F480202860F0E700BFFFF79EFDFE
:100FE000801B642873D828688003F7D50CE0FFF7CE
:100FF00095FD064605E000BFFFF790FD801B6428C5
:10100000F0D828688003F7D420789A4E80074FF0F4
:1010100001094FF0000839D5686810F00C0F07D0AF
:101020006868C0F38100022809D16868C00306D44B
:101030002868800714D52069012808D110E02069AC
:10104000B0B1C6F80090FFF769FD074605E00AE178
:10105000FFF764FDC01B0228C4D828688007F7D5B5
:101060002868616920F0F80040EAC10028600DE0BE
:10107000C6F80080FFF752FD074604E0FFF74EFD7B
:10108000C01B022823D828688007F7D420780007DF
:101090002CD57948A169D9B1C0F80090FFF73EFD81
:1010A000074604E0FFF73AFDC01B02280FD8686A24
:1010B0008007F7D571484FF4FA510068B0FBF1F0A2
:1010C000009000BF0098411E0091FAD20EE080E02F
:1010D000C0F80080FFF722FD074604E0FFF71EFD81
:1010E000C01B022875D8686A8007F7D420784007AB
:1010F00060D5E8690027C00008D4E86940F0805056
:10110000E861E869012700F0805000905C480168C0
:10111000C90513D40168834641F480710160FFF76B
:10112000FDFC824606E000BFFFF7F8FCA0EB0A00DA
:1011300064284ED8DBF80000C005F5D5E06801282A
:101140000AD008B1052813D0286A20F001002862CF
:10115000286A20F0040002E0286A40F001002862BA
:10116000E06841F2883B98B1FFF7D8FC82460BE07B
:10117000286A40F004002862EEE700BFFFF7CEFCCB
:10118000A0EB0A0159455AD8286A8007F6D50CE029
:10119000FFF7C4FC824605E0FFF7C0FCA0EB0A01A4
:1011A00059454CD8286A8007F6D41FB1E86920F069
:1011B0008050E861E06988B36968C1F38101022960
:1011C00044D00228C6F8608004D0FFF7A7FC04468C
:1011D00038E034E0FFF7A2FC074604E0FFF79EFC8E
:1011E000C01B02282BD828688001F7D4206AB0F5EC
:1011F000803F05D16868A16820F40030084368602A
:10120000D4E908010843696821F47411084368604F
:10121000C6F86090FFF782FC044606E025E000BFB8
:10122000FFF77CFC001B022809D828688001F7D54D
:101230001BE000BFFFF772FC001B022802D903204D
:10124000BDE8F88F28688001F4D40EE00128F7D0BB
:101250006868226A00F48031914204D1616A00F426
:101260007010884201D00120EAE70020E8E7000082
:101270000010024000004242800442421000002060
:101280000070004010B5401EB0F1807F01D30120F6
:1012900010BD4FF0E02460610F21601700F074F87A
:1012A0000020A06107202061002010BDFEE70000A3
:1012B0003EB5002411480094019402940E498460C4
:1012C000016004730475012505614FF460214460D9
:1012D000C161FFF74FF908B172B6FEE7072000942D
:1012E000CDE9015069460548FFF7C2F8002801D052
:1012F00072B6FEE73EBD000000240140140000204D
:10130000FEE7FEE770477047FFF70EBC30B593B0BD
:1013100028216846FEF758FF14210AA8FEF754FF5B
:101320000024022501200F940490009510200590C0
:1013300012944FF46010CDE9084011941094079571
:101340006846FFF70FFE08B172B6FEE70F20CDE941
:101350000A054FF48060CDE90C4002210AA80E94E2
:10136000FFF734FD08B172B6FEE74FF4004011906C
:101370000F950FA8FFF7B4FC002801D072B6FEE766
:1013800013B030BD7047FEE70907090E002804DBE3
:1013900000F1E02080F80014704700F00F0000F129
:1013A000E02080F8141D704708B5FFF7C5FBFFF774
:1013B000ADFF0B48816941F004018161806900F053
:1013C00004000090FFF774FF0648FEF7E5FF4FF4B6
:1013D000FA7400BFFEF7C6FF2046FFF79DFAF9E753
:1013E0000010024014000020010202030405060759
:1013F00008090A0B0C0D0E0F101001020203040560
:10140000060708090A0B0C0D0E0F10100000000053
:1014100000000000010203040607080900000000A4
:10142000010203044414000800000020140000001E
:101430002801000858140008140000209406000039
:10144000440100080000000001000000100000003E
:081450000000000000127A0008
:04000005080000ED02
:00000001FF
